:100000000C9472000C948B000C948B000C948B005D
:100010000C948B000C948B000C948B000C948B0034
:100020000C948B000C948B000C948B000C948B0024
:100030000C948B000C948B000C948B000C948B0014
:100040000C948B000C948B000C948B000C948B0004
:100050000C948B000C948B000C948B000C948B00F4
:100060000C948B000C948B000C948B000C948B00E4
:100070000C948B000C948B000C948B000C948B00D4
:100080000C948B000C948B000C948B000C948B00C4
:100090000C948B000C948B000C948B000C948B00B4
:1000A0000C948B000C948B000C948B000C948B00A4
:1000B0000C948B000C948B000C948B000C948B0094
:1000C0000C948B000C948B000C948B000C948B0084
:1000D0000C948B000C948B000C948B000C948B0074
:1000E0000C948B0011241FBECFEFD1E2DEBFCDBF39
:1000F00000E00CBF12E0A0E0B2E0E4EDF4E000E0CC
:100100000BBF02C007900D92A039B107D9F70E942A
:100110000E020C9468020C9400008091C000881FAD
:100120008827881F08958091C00087FF03C08091B1
:10013000C60008958FEF08959091C10095FDFCCF02
:100140009091C00095FFF8CF8093C60081E008959C
:100150008091C10085FDFCCF8091C00085FFF8CF64
:100160008BE18093C6008091C10085FDFCCF80911A
:10017000C00085FFF8CF8BE58093C6008091C10059
:1001800085FDFCCF8091C00085FFF8CF88E4809387
:10019000C600089582E08093C0001092C50080E1FF
:1001A0008093C400E1ECF0E08081886180830C944E
:1001B000A800FC013BE185E42191222379F02A305B
:1001C00091F09091C10095FDFCCF9091C00095FFFA
:1001D000F8CF2093C60021912111F1CF089590917D
:1001E000C00095FD09C09091C10095FFF8CF909196
:1001F000C10095FDF8CFF3CF3093C6009091C100B8
:1002000095FDFCCF9091C00095FFF8CF8093C6007C
:10021000D3CF4F925F926F927F928F929F92AF92C5
:10022000BF92CF92DF92EF92FF920F931F93CF93E3
:10023000DF93CDB7DEB7A1970FB6F894DEBF0FBE40
:10024000CDBF2B013C016A014114510461047104CA
:1002500009F455C04A01550FAA08BB08AC019B011F
:1002600010E000E00F5F1F4FCA01B901A501940122
:100270000E944602211531054105510599F7FE01FD
:1002800031967F010E0F1F1FF8011082C301B201CA
:10029000A50194010E9446026A307105810591050D
:1002A00010F0605F7F4F605DF80162938F0129015C
:1002B0003A01EE15FF0551F7F0E1CF16D104D1F068
:1002C000C7010E94D900A1960FB6F894DEBF0FBEF9
:1002D000CDBFDF91CF911F910F91FF90EF90DF90F5
:1002E000CF90BF90AF909F908F907F906F905F90D6
:1002F0004F9008958CE892E00E94D900E1CF1982D6
:10030000CE0101967C01D8CF4AE050E00C9409015F
:10031000BC0190E080E04AE050E00C940901CF93EA
:10032000C62F9091C10095FDFCCF9091C00095FF24
:10033000F8CF9BE19093C6009091C10095FDFCCF52
:100340009091C00095FFF8CF9BE59093C600682F71
:1003500070E090E080E04AE050E00E940901809166
:10036000C10085FDFCCF8091C00085FFF8CF8BE3F5
:100370008093C6006C2F70E090E080E04AE050E08F
:100380000E9409018091C10085FDFCCF8091C000D1
:1003900085FFF8CF86E68093C600CF9108959091AF
:1003A000C10095FDFCCF9091C00095FFF8CF9BE177
:1003B0009093C6009091C10095FDFCCF9091C00034
:1003C00095FFF8CF9BE59093C600682F70E090E012
:1003D00080E04AE050E00E9409018091C10085FD63
:1003E000FCCF8091C00085FFF8CF8DE68093C600DA
:1003F000089540E150E00C940901BC0190E080E0D8
:1004000040E150E00C9409016A30710581059105C5
:1004100018F0CB0140960895CB0108950E94CA00C0
:1004200080E092E00E94D9008BE292E00E94D90025
:1004300080E094E00E9488018FE392E00E94D9005E
:1004400060E070E080E090E10E94840161E085E07E
:100450000E948F018FE10E94CF018BE592E00E9404
:10046000D90080E094E00E94FD0180E792E00E94C4
:10047000D90060E070E080E090E10E94F90189E23B
:1004800092E00E94D90090E080E00895A1E21A2E47
:10049000AA1BBB1BFD010DC0AA1FBB1FEE1FFF1F28
:1004A000A217B307E407F50720F0A21BB30BE40B78
:1004B000F50B661F771F881F991F1A9469F76095BF
:1004C0007095809590959B01AC01BD01CF01089579
:0404D000F894FFCFCE
:1004D4007072696E745F737472696E673A2028690A
:1004E400662074686973206C696E6520617070653C
:1004F4006172732C20594159290A007072696E7413
:100504005F696E7420772F20313032343A20000A2C
:100514007072696E745F696E74333220772F203283
:1005240036383433353435363A20000A7072696E01
:10053400745F68657820772F20313032343A200098
:100544000A7072696E745F686578333220772F2081
:100554003236383433353435363A200030780000BA
:00000001FF
