:100000000C9472000C948B000C948B000C948B005D
:100010000C948B000C948B000C948B000C948B0034
:100020000C948B000C948B000C948B000C948B0024
:100030000C948B000C948B000C948B000C948B0014
:100040000C948B000C948B000C948B000C948B0004
:100050000C948B000C948B000C948B000C948B00F4
:100060000C948B000C948B000C948B000C948B00E4
:100070000C948B000C948B000C948B000C948B00D4
:100080000C948B000C948B000C948B000C948B00C4
:100090000C948B000C948B000C948B000C948B00B4
:1000A0000C948B000C948B000C948B000C948B00A4
:1000B0000C948B000C948B000C948B000C948B0094
:1000C0000C948B000C948B000C948B000C948B0084
:1000D0000C948B000C948B000C948B000C948B0074
:1000E0000C948B0011241FBECFEFD1E2DEBFCDBF39
:1000F00000E00CBF12E0A0E0B2E0EEE5F5E000E0C9
:100100000BBF02C007900D92A034B107D9F70E942F
:1001100087020C94AD020C940000FC012081318117
:10012000232B29F421E030E03183208308951182CC
:1001300010820895CF93DF93EC01672B59F08881EB
:100140009981AA81BB810196A11DB11D88839983E4
:10015000AA83BB830E94CF0161E081E00E94080274
:1001600080E092E00E941901888199810E94C80173
:100170008EE092E00E941901688179818A819B81D9
:100180000E94C4018DE192E00E9419018881998149
:100190000E9476028CE292E00E94190168817981C6
:1001A0008A819B810E9472028BE392E0DF91CF9162
:1001B0000C941901CF93DF9300D01F92CDB7DEB717
:1001C00019821A821B821C8201E010E00EC0B80165
:1001D000CE0101960E949A008FEF93ED20E38150AB
:1001E00090402040E1F700C000000E94FE008823FC
:1001F00071F30E94040121E00227E9CF8091C00041
:10020000881F8827881F08958091C00087FF03C03A
:100210008091C60008958FEF08959091C10095FDDB
:10022000FCCF9091C00095FFF8CF8093C60081E08D
:100230000895FC013BE185E42191222379F02A30E5
:1002400091F09091C10095FDFCCF9091C00095FF79
:10025000F8CF2093C60021912111F1CF08959091FC
:10026000C00095FD09C09091C10095FFF8CF909115
:10027000C10095FDF8CFF3CF3093C6009091C10037
:1002800095FDFCCF9091C00095FFF8CF8093C600FC
:10029000D3CF4F925F926F927F928F929F92AF9245
:1002A000BF92CF92DF92EF92FF920F931F93CF9363
:1002B000DF93CDB7DEB7A1970FB6F894DEBF0FBEC0
:1002C000CDBF2B013C016A0141145104610471044A
:1002D00009F455C04A01550FAA08BB08AC019B019F
:1002E00010E000E00F5F1F4FCA01B901A5019401A2
:1002F0000E948B02211531054105510599F7FE0138
:1003000031967F010E0F1F1FF8011082C301B20149
:10031000A50194010E948B026A3071058105910547
:1003200010F0695F7F4F605DF80162938F012901D2
:100330003A01EE15FF0551F7F0E1CF16D104D1F0E7
:10034000C7010E941901A1960FB6F894DEBF0FBE37
:10035000CDBFDF91CF911F910F91FF90EF90DF9074
:10036000CF90BF90AF909F908F907F906F905F9055
:100370004F9008958DE392E00E941901E1CF198218
:10038000CE0101967C01D8CF4AE050E00C9449019F
:10039000BC0190E080E04AE050E00C94490180917B
:1003A000C10085FDFCCF8091C00085FFF8CF8BE1B7
:1003B0008093C6008091C10085FDFCCF8091C00074
:1003C00085FFF8CF8BE58093C6004AE050E062E0FD
:1003D00070E080E090E00E9449018091C10085FDBD
:1003E000FCCF8091C00085FFF8CF8AE48093C600DF
:1003F000089582E08093C0001092C50080E1809350
:10040000C400E1ECF0E08081886180830C94CF012E
:10041000CF93C62F9091C10095FDFCCF9091C00065
:1004200095FFF8CF9BE19093C6009091C10095FD98
:10043000FCCF9091C00095FFF8CF9BE59093C6004C
:10044000682F70E090E080E04AE050E00E944901AF
:100450008091C10085FDFCCF8091C00085FFF8CF61
:100460008BE38093C6006C2F70E090E080E04AE060
:1004700050E00E9449018091C10085FDFCCF809130
:10048000C00085FFF8CF86E68093C600CF9108951F
:100490009091C10095FDFCCF9091C00095FFF8CFE1
:1004A0009BE19093C6009091C10095FDFCCF909187
:1004B000C00095FFF8CF9BE59093C600682F70E0D1
:1004C00090E080E04AE050E00E9449018091C10044
:1004D00085FDFCCF8091C00085FFF8CF8DE680932D
:1004E000C600089540E150E00C944901BC0190E041
:1004F00080E040E150E00C9449016A3071058105CB
:10050000910518F0CB0107960895CB0108950E943C
:10051000F9010E94DA00A1E21A2EAA1BBB1BFD0101
:100520000DC0AA1FBB1FEE1FFF1FA217B307E407D2
:10053000F50720F0A21BB30BE40BF50B661F771F2A
:10054000881F991F1A9469F760957095809590950A
:0E0550009B01AC01BD01CF010895F894FFCFCF
:10055E007072696E745F696E743A202020000A70A2
:10056E0072696E745F696E7433323A20000A70726B
:10057E00696E745F6865783A202020000A7072698F
:10058E006E745F68657833323A20000A0030780066
:00000001FF
