:100000000C9472000C948B000C948B000C948B005D
:100010000C948B000C948B000C948B000C948B0034
:100020000C948B000C948B000C948B000C948B0024
:100030000C948B000C948B000C948B000C948B0014
:100040000C948B000C948B000C948B000C948B0004
:100050000C948B000C948B000C948B000C948B00F4
:100060000C948B000C948B000C948B000C948B00E4
:100070000C948B000C948B000C948B000C948B00D4
:100080000C948B000C948B000C948B000C948B00C4
:100090000C948B000C948B000C948B000C948B00B4
:1000A0000C948B000C948B000C948B000C948B00A4
:1000B0000C948B000C948B000C948B000C948B0094
:1000C0000C948B000C948B000C948B000C948B0084
:1000D0000C948B000C948B000C948B000C948B0074
:1000E0000C948B0011241FBECFEFD1E2DEBFCDBF39
:1000F00000E00CBF12E0A0E0B2E0E0E6F5E000E0D6
:100100000BBF02C007900D92A034B107D9F70E942F
:1001100088020C94AE020C940000FC012081318115
:10012000232B29F421E030E03183208308951182CC
:1001300010820895CF93DF93EC01672B61F08881E3
:100140009981AA81BB81805E914BAF4FBF4F88835D
:100150009983AA83BB830E94D00161E081E00E9461
:10016000090280E092E00E941A01888199810E9430
:10017000C9018EE092E00E941A01688179818A812A
:100180009B810E94C5018DE192E00E941A01888145
:1001900099810E9477028CE292E00E941A016881A4
:1001A00079818A819B810E9473028BE392E0DF91C7
:1001B000CF910C941A01CF93DF9300D01F92CDB74B
:1001C000DEB719821A821B821C8201E010E00EC089
:1001D000B801CE0101960E949A008FEF93ED20E3C3
:1001E000815090402040E1F700C000000E94FF00D5
:1001F000882371F30E94050121E00227E9CF809155
:10020000C000881F8827881F08958091C00087FF3D
:1002100003C08091C60008958FEF08959091C100AA
:1002200095FDFCCF9091C00095FFF8CF8093C6005C
:1002300081E00895FC013BE185E42191222379F0DE
:100240002A3091F09091C10095FDFCCF9091C000B3
:1002500095FFF8CF2093C60021912111F1CF089589
:100260009091C00095FD09C09091C10095FFF8CF15
:100270009091C10095FDF8CFF3CF3093C6009091D7
:10028000C10095FDFCCF9091C00095FFF8CF809301
:10029000C600D3CF4F925F926F927F928F929F92C0
:1002A000AF92BF92CF92DF92EF92FF920F931F9384
:1002B000CF93DF93CDB7DEB7A1970FB6F894DEBF2B
:1002C0000FBECDBF2B013C016A01411451046104F2
:1002D000710409F455C04A01550FAA08BB08AC01C6
:1002E0009B0110E000E00F5F1F4FCA01B901A5019B
:1002F00094010E948C02211531054105510599F7A1
:10030000FE0131967F010E0F1F1FF8011082C301FD
:10031000B201A50194010E948C026A307105810529
:10032000910510F0695F7F4F605DF80162938F0166
:1003300029013A01EE15FF0551F7F0E1CF16D1047E
:10034000D1F0C7010E941A01A1960FB6F894DEBF42
:100350000FBECDBFDF91CF911F910F91FF90EF9016
:10036000DF90CF90BF90AF909F908F907F906F90D5
:100370005F904F9008958DE392E00E941A01E1CFC3
:100380001982CE0101967C01D8CF4AE050E00C944E
:100390004A01BC0190E080E04AE050E00C944A0140
:1003A0008091C10085FDFCCF8091C00085FFF8CF12
:1003B0008BE18093C6008091C10085FDFCCF8091C8
:1003C000C00085FFF8CF8BE58093C6004AE050E07F
:1003D00062E070E080E090E00E944A018091C100FC
:1003E00085FDFCCF8091C00085FFF8CF8AE4809323
:1003F000C600089582E08093C0001092C50080E19D
:100400008093C400E1ECF0E08081886180830C94EB
:10041000D001CF93C62F9091C10095FDFCCF909154
:10042000C00095FFF8CF9BE19093C6009091C1006A
:1004300095FDFCCF9091C00095FFF8CF9BE5909380
:10044000C600682F70E090E080E04AE050E00E9433
:100450004A018091C10085FDFCCF8091C00085FFDD
:10046000F8CF8BE38093C6006C2F70E090E080E0C3
:100470004AE050E00E944A018091C10085FDFCCF16
:100480008091C00085FFF8CF86E68093C600CF91AB
:1004900008959091C10095FDFCCF9091C00095FF0B
:1004A000F8CF9BE19093C6009091C10095FDFCCFE1
:1004B0009091C00095FFF8CF9BE59093C600682F00
:1004C00070E090E080E04AE050E00E944A018091B4
:1004D000C10085FDFCCF8091C00085FFF8CF8DE67F
:1004E0008093C600089540E150E00C944A01BC019D
:1004F00090E080E040E150E00C944A016A307105E0
:100500008105910518F0CB0107960895CB01089558
:100510000E94FA010E94DB00A1E21A2EAA1BBB1B5B
:10052000FD010DC0AA1FBB1FEE1FFF1FA217B307BF
:10053000E407F50720F0A21BB30BE40BF50B661FD5
:10054000771F881F991F1A9469F760957095809599
:1005500090959B01AC01BD01CF010895F894FFCFA8
:100560007072696E745F696E743A202020000A70A0
:1005700072696E745F696E7433323A20000A707269
:10058000696E745F6865783A202020000A7072698D
:100590006E745F68657833323A20000A0030780064
:00000001FF
