:100000000C9472000C948B000C948B000C948B005D
:100010000C948B000C948B000C948B000C948B0034
:100020000C948B000C948B000C948B000C948B0024
:100030000C948B000C948B000C948B000C948B0014
:100040000C948B000C948B000C948B000C948B0004
:100050000C948B000C948B000C948B000C948B00F4
:100060000C948B000C948B000C948B000C948B00E4
:100070000C948B000C948B000C948B000C948B00D4
:100080000C948B000C948B000C948B000C948B00C4
:100090000C948B000C948B000C948B000C948B00B4
:1000A0000C948B000C948B000C948B000C948B00A4
:1000B0000C948B000C948B000C948B000C948B0094
:1000C0000C948B000C948B000C948B000C948B0084
:1000D0000C948B000C948B000C948B000C948B0074
:1000E0000C948B0011241FBECFEFD1E2DEBFCDBF39
:1000F00000E00CBF12E0A0E0B2E0EEEAF5E000E0C4
:100100000BBF02C007900D92A430B107D9F70E942F
:10011000A9020C94D5020C940000F070E070E46227
:10012000C081C068C0830895813651F08A3739F4A0
:10013000FB01808191814496918380830895089585
:10014000FB01808191814497918380830895CF93AF
:10015000DF93EC01BC01990F880B990B0E94E6011B
:100160001C161D0664F490E080E0EFE9FFE0319793
:10017000F1F700C000000196C817D907B1F7DF9169
:10018000CF910895FC0120813181232B31F4BF7779
:1001900021E030E0318320830895B068118210821D
:1001A0000895F070E070E562B081FC01208131813A
:1001B000232B39F4BF7721E030E031832083B083F3
:1001C0000895B06811821082B083089501E010E0B4
:1001D000C4EFD1E00E942001811124C0BE010D2E88
:1001E000000C880B990B0E94E6011C161D0664F496
:1001F00090E080E0EFE9FFE03197F1F700C0000008
:1002000001968C179D07B1F7F070E070E562B08140
:10021000012B81F0B06810E000E0B0830E94200163
:100220008823E1F20E942601813641F08A37B1F637
:100230006496D4CFBF7701E010E0EFCF6497CECFC4
:100240008091C000881F8827881F08958091C00072
:1002500087FF03C08091C60008958FEF08959091A5
:10026000C10095FDFCCF9091C00095FFF8CF809321
:10027000C60081E00895FC013BE185E42191222341
:1002800079F02A3091F09091C10095FDFCCF9091CA
:10029000C00095FFF8CF2093C60021912111F1CF26
:1002A00008959091C00095FD09C09091C10095FFFF
:1002B000F8CF9091C10095FDF8CFF3CF3093C600F1
:1002C0009091C10095FDFCCF9091C00095FFF8CFB3
:1002D0008093C600D3CF4F925F926F927F928F929E
:1002E0009F92AF92BF92CF92DF92EF92FF920F93C5
:1002F0001F93CF93DF93CDB7DEB7A1970FB6F894D6
:10030000DEBF0FBECDBF2B013C016A014114510479
:100310006104710409F455C04A01550FAA08BB08CD
:10032000AC019B0110E000E00F5F1F4FCA01B90153
:10033000A50194010E94B302211531054105510523
:1003400099F7FE0131967F010E0F1F1FF8011082F1
:10035000C301B201A50194010E94B3026A30710584
:100360008105910510F0695F7F4F605DF801629330
:100370008F0129013A01EE15FF0551F7F0E1CF1683
:10038000D104D1F0C7010E943B01A1960FB6F894A9
:10039000DEBF0FBECDBFDF91CF911F910F91FF90B8
:1003A000EF90DF90CF90BF90AF909F908F907F9015
:1003B0006F905F904F90089580E092E00E943B0123
:1003C000E1CF1982CE0101967C01D8CF4AE050E0FE
:1003D0000C946B01BC0190E080E04AE050E00C948A
:1003E0006B018091C10085FDFCCF8091C00085FF2D
:1003F000F8CF8BE18093C6008091C10085FDFCCFD2
:100400008091C00085FFF8CF8BE58093C6004AE05D
:1004100050E062E070E080E090E00E946B0180912B
:10042000C10085FDFCCF8091C00085FFF8CF8AE434
:100430008093C600089582E08093C0001092C500AA
:1004400080E18093C400E1ECF0E0808188618083EA
:100450000C94F101CF93C62F9091C10095FDFCCF74
:100460009091C00095FFF8CF9BE19093C6009091CA
:10047000C10095FDFCCF9091C00095FFF8CF9BE5A2
:100480009093C600682F70E090E080E04AE050E072
:100490000E946B018091C10085FDFCCF8091C0005E
:1004A00085FFF8CF8BE38093C6006C2F70E090E05F
:1004B00080E04AE050E00E946B018091C10085FD20
:1004C000FCCF8091C00085FFF8CF86E68093C60000
:1004D000CF9108959091C10095FDFCCF9091C000FF
:1004E00095FFF8CF9BE19093C6009091C10095FDD8
:1004F000FCCF9091C00095FFF8CF9BE59093C6008C
:10050000682F70E090E080E04AE050E00E946B01CC
:100510008091C10085FDFCCF8091C00085FFF8CFA0
:100520008DE68093C600089540E150E00C946B0185
:10053000BC0190E080E040E150E00C946B016A3037
:1005400071058105910518F0CB0107960895CB013F
:1005500008950E941B02F070E070E462C081C068E0
:10056000C0830E94E600A1E21A2EAA1BBB1BFD015C
:100570000DC0AA1FBB1FEE1FFF1FA217B307E40782
:10058000F50720F0A21BB30BE40BF50B661F771FDA
:10059000881F991F1A9469F76095709580959095BA
:0E05A0009B01AC01BD01CF010895F894FFCF7F
:0405AE0030780000A1
:00000001FF
