:100000000C9472000C948B000C948B000C948B005D
:100010000C948B000C948B000C948B000C948B0034
:100020000C948B000C948B000C948B000C948B0024
:100030000C948B000C948B000C948B000C948B0014
:100040000C948B000C948B000C948B000C948B0004
:100050000C948B000C948B000C948B000C948B00F4
:100060000C948B000C948B000C948B000C948B00E4
:100070000C948B000C948B000C948B000C948B00D4
:100080000C948B000C948B000C948B000C948B00C4
:100090000C948B000C948B000C948B000C948B00B4
:1000A0000C948B000C948B000C948B000C948B00A4
:1000B0000C948B000C948B000C948B000C948B0094
:1000C0000C948B000C948B000C948B000C948B0084
:1000D0000C948B000C948B000C948B000C948B0074
:1000E0000C948B0011241FBECFEFD1E2DEBFCDBF39
:1000F00000E00CBF12E0A0E0B2E0E8ECF6E000E0C7
:100100000BBF02C007900D92A631B107D9F70E942C
:100110002C030C9462030C9400000F931F93CF9355
:10012000DF93C82F092FD62F172F60E080E00E94A1
:10013000AD0280E092E00E94BE018C2F902F0E94C1
:100140006D0282E092E00E94BE018D2F912F0E94ED
:100150006D0285E092E00E94BE016D2F8C2FDF9131
:10016000CF911F910F910C94AD02CF93DF93C82FC5
:10017000D62F0E9474026D2F8C2F0E94AD0288E052
:1001800092E0DF91CF910C94BE01FC01208131817E
:10019000620F731F623071055CF06A3171052CF0DB
:1001A00029E130E0318320830895718360830895CD
:1001B00022E030E0318320830895FC0120813181E9
:1001C000620F731F161617065CF4673471052CF066
:1001D00026E430E03183208308957183608308959D
:1001E00021E030E03183208308958436D9F134F161
:1001F0008337A1F0873709F048C0FB0180819181E6
:10020000019791838083823091058CF04A97ACF0FE
:1002100089E190E0FB01918380830895FB01808157
:100220009181019691838083823091057CF782E0F1
:1002300090E0FB019183808308950895813631F524
:10024000FA018081918101979183808318161906A4
:10025000B4F4873491058CF386E490E0FA0191833D
:1002600080830895FA018081918101969183808332
:100270001816190624F48734910574F7089581E05F
:1002800090E0FA019183808308950895089583365C
:1002900009F00895FB0180819181019686329105D4
:1002A00014F08FE190E0918380830C94ED02CF9362
:1002B000DF9300D01F92CDB7DEB782E090E09C8341
:1002C0008B8381E090E09A83898395E2C92ED12CBB
:1002D0000E94A3018823E1F30E94A901182FAE0117
:1002E0004F5F5F4FBE016D5F7F4F0E94F500133679
:1002F000D1F01C2DF9800B810E9474026F2D802F8C
:100300000E94AD0288E092E00E94BE0185E20E9458
:10031000ED0269817A818B819C810E948D00812F01
:100320000E94ED02D5CF8FEFC81AD80A1C2D86E2A5
:10033000C816D10421F41FE18FE1C82ED12C812FE2
:100340000E94ED02D7CF8091C000881F8827881FA8
:1003500008958091C00087FF03C08091C600089572
:100360008FEF08959091C10095FDFCCF9091C00052
:1003700095FFF8CF8093C60081E00895FC013BE132
:1003800085E42191222379F02A3091F09091C100E7
:1003900095FDFCCF9091C00095FFF8CF2093C6004B
:1003A00021912111F1CF08959091C00095FD09C0D0
:1003B0009091C10095FFF8CF9091C10095FDF8CFC5
:1003C000F3CF3093C6009091C10095FDFCCF909182
:1003D000C00095FFF8CF8093C600D3CF4F925F92B5
:1003E0006F927F928F929F92AF92BF92CF92DF9245
:1003F000EF92FF920F931F93CF93DF93CDB7DEB7AA
:10040000A1970FB6F894DEBF0FBECDBF2B013C0104
:100410006A01411451046104710409F455C04A0190
:10042000550FAA08BB08AC019B0110E000E00F5F6C
:100430001F4FCA01B901A50194010E944003211573
:1004400031054105510599F7FE0131967F010E0FE7
:100450001F1FF8011082C301B201A50194010E947F
:1004600040036A3071058105910510F0605F7F4F90
:10047000605DF80162938F0129013A01EE15FF05D5
:1004800051F7F0E1CF16D104D1F0C7010E94BE01AF
:10049000A1960FB6F894DEBF0FBECDBFDF91CF910E
:1004A0001F910F91FF90EF90DF90CF90BF90AF9092
:1004B0009F908F907F906F905F904F90089583E111
:1004C00092E00E94BE01E1CF1982CE0101967C012B
:1004D000D8CF4AE050E00C94EE01BC0190E080E0FF
:1004E0004AE050E00C94EE018091C10085FDFCCF04
:1004F0008091C00085FFF8CF8BE18093C60080918A
:10050000C10085FDFCCF8091C00085FFF8CF8BE551
:100510008093C6004AE050E062E070E080E090E046
:100520000E94EE018091C10085FDFCCF8091C0004A
:1005300085FFF8CF8AE48093C600089582E0809317
:10054000C0001092C50080E18093C400E1ECF0E0AF
:100550008081886180830C947402CF93C62F909120
:10056000C10095FDFCCF9091C00095FFF8CF9BE1B5
:100570009093C6009091C10095FDFCCF9091C00072
:1005800095FFF8CF9BE59093C600682F70E090E050
:1005900080E04AE050E00E94EE018091C10085FDBC
:1005A000FCCF8091C00085FFF8CF8BE38093C6001D
:1005B0006C2F70E090E080E04AE050E00E94EE0195
:1005C0008091C10085FDFCCF8091C00085FFF8CFF0
:1005D00086E68093C600CF9108959091C10095FD65
:1005E000FCCF9091C00095FFF8CF9BE19093C6009F
:1005F0009091C10095FDFCCF9091C00095FFF8CF80
:100600009BE59093C600682F70E090E080E04AE0A0
:1006100050E00E94EE018091C10085FDFCCF8091E9
:10062000C00085FFF8CF8DE68093C600089540E1B5
:1006300050E00C94EE01BC0190E080E040E150E01D
:100640000C94EE016A3071058105910518F0CB011B
:1006500040960895CB0108950E949E020E94740264
:1006600061E082E00E94AD0288E092E00E94BE015B
:1006700061E070E082E090E00E948D000E945701EE
:10068000A1E21A2EAA1BBB1BFD010DC0AA1FBB1F96
:10069000EE1FFF1FA217B307E407F50720F0A21B08
:1006A000B30BE40BF50B661F771F881F991F1A9475
:1006B00069F760957095809590959B01AC01BD019F
:0806C000CF010895F894FFCF6B
:1006C80028002C2000290A00426576696E205461B2
:0606D8006E67003078009F
:00000001FF
