:100000000C9478000C9499000C9499000C9499002D
:100010000C9499000C9499000C9499000C949900FC
:100020000C9499000C9499000C9499000C949900EC
:100030000C9499000C9499000C9499000C949900DC
:100040000C9499000C9499000C9499000C949900CC
:100050000C9499000C9412040C9499000C9499003F
:100060000C9499000C9499000C9499000C949900AC
:100070000C9499000C9499000C9499000C9499009C
:100080000C9499000C9499000C9499000C9499008C
:100090000C9499000C9499000C9499000C9499007C
:1000A0000C9499000C9499000C9499000C9499006C
:1000B0000C9499000C9499000C9499000C9499005C
:1000C0000C9499000C9499000C9499000C9499004C
:1000D0000C9499000C9499000C9499000C9499003C
:1000E0000C9499000C94C7030C9497010C94E400B1
:1000F00011241FBECFEFD1E2DEBFCDBF00E00CBFA9
:1001000012E0A0E0B2E0ECEBFDE000E00BBF02C0CB
:1001100007900D92A23CB107D9F723E0A2ECB2E020
:1001200001C01D92A332B207E1F70E9452050C9460
:10013000DC060C940000E4E2FF2720812068219374
:100140002081206820830895E4E2FF272081206831
:10015000219320812F7720830895CF92DF92EF9211
:10016000FF92CF93DF93EC01C090C902D090CA02F6
:10017000E090CB02F090CC0288819981AA81BB816A
:10018000892B8A2B8B2BC9F083E192E00E94E90135
:100190008091C9029091CA02A091CB02B091CC0289
:1001A0008C199D09AE09BF09488159816A817B81FB
:1001B00084179507A607B70738F3DF91CF91FF9013
:1001C000EF90DF90CF900895EC01E4E2FF272081CB
:1001D00020682193208120682083CE010E94AD00F9
:1001E000E4E2FF2720812068219320812F7720835C
:1001F000CE010E94AD00E9CF9F92AF92BF92CF9205
:10020000DF92EF92FF920F931F93CF93DF937B01C7
:10021000E091C202F091C30299E0899FE00DF11DC7
:100220001124C080D180928003811481C581D68140
:10023000A780B08480E20E94800386E092E00E9462
:10024000E90184E20E948003892D90E00E941D0252
:1002500080E20E94800384E192E00E94E90184E24E
:100260000E948003C6010E94E90180E20E9480038F
:1002700083E292E00E94E90184E20E948003C701C8
:100280000E941D0280E20E9480038FE292E00E94A1
:10029000E90184E20E9480037E01EA0CFB1CB701A5
:1002A000601B710B90E080E00E94820280E20E945D
:1002B00080038EE392E00E94E90184E20E948003C1
:1002C000B50190E080E00E94820280E20E948003FB
:1002D00082E592E00E94E90184E20E948003C80165
:1002E0000E94EB0280E20E9480038AE692E00E9474
:1002F000E90184E20E948003CE010E94EB0280E2C9
:100300000E94800388E792E00E94E90184E20E9453
:100310008003C701DF91CF911F910F91FF90EF9064
:10032000DF90CF90BF90AF909F900C94EB0261E074
:1003300081E00E945B0380E20E94800385E892E0F6
:100340000E94E90184E20E9480036091C5027091DD
:10035000C6028091C7029091C8020E94820280E288
:100360000E9480038FE892E00E94E90184E20E94EB
:10037000800360911E036150770B072E000C880BE1
:10038000990B0E94820267E971E080E00E94FC0004
:1003900064EE70E081E00E94FC00C9CF8091C00053
:1003A000881F8827881F08958091C00087FF03C099
:1003B0008091C60008958FEF08959091C10095FD3A
:1003C000FCCF9091C00095FFF8CF8093C60081E0EC
:1003D0000895AC0130E06BE185E4FA01E30FF11D13
:1003E00020812A3099F0222339F19091C10095FDA6
:1003F000FCCF9091C00095FFF8CF2093C6003F5FDF
:10040000FA01E30FF11D20812A3069F79091C100B4
:1004100095FDFCCF9091C00095FFF8CF6093C6008A
:100420009091C10095FDFCCF9091C00095FFF8CF51
:100430008093C6003F5FE4CF0895CF93DF9300D051
:100440001F921F92CDB7DEB7AC01892B09F446C0CD
:10045000E0E001C0E82F9A01ADECBCEC0E94A805D9
:10046000BC017695679576956795769567959B011E
:10047000220F331F220F331F260F371F220F331F68
:10048000421B530B942FA1E0B0E0AC0FBD1FAE0F89
:10049000B11DE7FDBA954C93AB0181E08E0F672B40
:1004A000C9F6E7FD27C0905D8091C10085FDFCCFB6
:1004B0008091C00085FFF8CF9093C600E150D0F046
:1004C000A1E0B0E0AC0FBD1FAE0FB11DE7FDBA95C6
:1004D0009C91E9CF8091C00085FD09C08091C10049
:1004E00085FFF8CF8091C10085FDF8CFF3CF80E381
:1004F0008093C6000F900F900F900F900F90DF9198
:10050000CF910895CF92DF92EF92FF921F93CF93F6
:10051000DF9300D000D000D01F92CDB7DEB76115B9
:1005200071058105910509F43CC010E02AE0C22E56
:10053000D12CE12CF12C01C0122FA70196010E94B1
:100540008605E62FA1E0B0E0AC0FBD1FA10FB11DE5
:1005500017FDBA956C93B901CA0121E0210F61150D
:1005600071058105910541F717FD27C0E05D809178
:10057000C10085FDFCCF8091C00085FFF8CFE093DE
:10058000C6001150D0F0E1E0F0E0EC0FFD1FE10FEC
:10059000F11D17FDFA95E081E9CF8091C00085FD3E
:1005A00009C08091C10085FFF8CF8091C10085FD11
:1005B000F8CFF3CF80E38093C6002A960FB6F89465
:1005C000DEBF0FBECDBFDF91CF911F91FF90EF90A7
:1005D000DF90CF900895CF93DF93EC0184EB92E00E
:1005E0000E94E9012CE0CE01022E02C0969587956B
:1005F0000A94E2F78F708A3090F097E3980F809119
:10060000C10085FDFCCF8091C00085FFF8CF90939D
:10061000C60024502C3F39F7DF91CF91089590E325
:10062000980F8091C10085FDFCCF8091C00085FFAF
:10063000F8CF9093C60024502C3FA9F6EDCFCF926F
:10064000DF92EF92FF926B017C0184EB92E00E94BB
:10065000E9012CE1D701C601022E04C0B695A79589
:10066000979587950A94D2F78F708A30A0F097E318
:10067000980F8091C10085FDFCCF8091C00085FF5F
:10068000F8CF9093C60024502C3F21F7FF90EF90B5
:10069000DF90CF90089590E3980F8091C10085FD81
:1006A000FCCF8091C00085FFF8CF9093C600245006
:1006B0002C3F81F6EBCFCF93DF93D82FC62F8091BD
:1006C000C10085FDFCCF8091C00085FFF8CF8BE194
:1006D0008093C60087EB92E00E94E9018D2F90E0A5
:1006E0000E941D0289EB92E00E94E9018C2F90E0AC
:1006F0000E941D028BEB92E0DF91CF910C94E901F7
:100700009091C10095FDFCCF9091C00095FFF8CF6E
:100710009BE19093C6009091C10095FDFCCF909114
:10072000C00095FFF8CF9BE59093C60090E00E9433
:100730001D028091C10085FDFCCF8091C00085FF26
:10074000F8CF8DE68093C60008958091C10085FDA5
:10075000FCCF8091C00085FFF8CF8BE18093C6006D
:100760008DEB92E00C94E90182E08093C00010923E
:10077000C50080E18093C400E1ECF0E080818861F5
:10078000808361E081E00E945B030C94A503789470
:10079000952D842DF32DE22D0994EEE6F0E0808175
:1007A0008260808384B5826084BD85B5856085BDA7
:1007B0008CE987BD08952F923F924F925F926F927E
:1007C0007F928F929F92AF92BF92CF92DF92EF92E1
:1007D000FF920F931F93CF93DF93EE27FF27ED65D3
:1007E000A190B080F72FE62FA192B082F92FE82FC9
:1007F000A190B080EE27FF27ED65A192B082DF9136
:10080000CF911F910F91FF90EF90DF90CF90BF900D
:10081000AF909F908F907F906F905F904F903F90A0
:100820002F9008951F920F920FB60F9211240BB6BE
:100830000F92CF92DF92EF92FF920F931F932F931D
:100840003F934F935F936F937F938F939F93AF9358
:10085000BF93CF93DF93EF93FF930091C202109168
:10086000C3029091C40289E0E801989FC00DD11D98
:10087000112423969F5F40911E034150550B9417FE
:1008800015060CF06BC0989F000D111D112490935C
:10089000C4020D5F1F4FC090C902D090CA02E09001
:1008A000CB02F090CC028FEFC81AD80AE80AF80AF7
:1008B000C092C902D092CA02E092CB02F092CC025E
:1008C000C701B60124E630E040E050E00E94860512
:1008D000672B682B692B99F48091C5029091C60211
:1008E000A091C702B091C8020196A11DB11D8093CD
:1008F000C5029093C602A093C702B093C80280E4D9
:10090000C81682E4D8068FE0E806F10441F410929C
:10091000C9021092CA021092CB021092CC02BE0100
:10092000C8010E94DB03FF91EF91DF91CF91BF914E
:10093000AF919F918F917F916F915F914F913F9177
:100940002F911F910F91FF90EF90DF90CF900F901C
:100950000BBE0F900FBE0F901F90189590E097CF91
:100960000E94B403E2ECF2E08DEC92E0918380838C
:1009700012821382148215821682178210861186C3
:10098000128610921E0308954091C2025091C30234
:100990009091C40289E0BA01989F600D711D1124E5
:1009A000665071099F5F20911E032150330B9217EF
:1009B0001306ACF090E09093C40290916E009260A8
:1009C00090936E0094B5926094BD95B5956095BD79
:1009D0008CE987BDCA0103960E94DB030895989FA6
:1009E000400D511D1124E7CF7F928F929F92AF92BD
:1009F000BF92CF92DF92EF92FF920F931F93CF930C
:100A0000DF936C01862E772E042F952E59011091BD
:100A10001E0389E0189FE0011124C353DD4F7901C3
:100A200086E1E80EF11CC7010E94B7059E838D8305
:100A3000FC01EA0DFB1DD982C882A2ECB2E012963D
:100A40008C9112978A83FC83EB83F886EF82718AFC
:100A5000828A9786008B138A27EC33E0348B258BB0
:100A60008F5F12968C931F5F10931E03DF91CF91BF
:100A70001F910F91FF90EF90DF90CF90BF90AF90BC
:100A80009F908F907F9008958091C4028F5F2091F6
:100A90001E032150330B821713060CF080E0809365
:100AA000C4020895CF93DF9300D01F92CDB7DEB775
:100AB0000E94B00482E090E0A0E0B0E089839A83D5
:100AC000AB83BC8320E430E050E040E067E971E0B4
:100AD00084EA92E00E94F40420E031E0AE014F5F2E
:100AE0005F4F64EE70E08BEA92E00E94F40430E025
:100AF00020E050E040E070E060E08FEA92E00E9489
:100B0000F4040E94A5030E94C404FFCFA1E21A2EA0
:100B1000AA1BBB1BFD010DC0AA1FBB1FEE1FFF1FA1
:100B2000A217B307E407F50720F0A21BB30BE40BF1
:100B3000F50B661F771F881F991F1A9469F7609538
:100B40007095809590959B01AC01BD01CF010895F2
:100B5000A29FB001B39FC001A39F700D811D1124FE
:100B6000911DB29F700D811D1124911D08950F9349
:100B70001F93CF93DF938230910510F482E090E0D1
:100B8000E0912103F091220330E020E0B0E0A0E00A
:100B9000309799F42115310509F44AC0281B390B07
:100BA00024303105D8F58A819B816115710589F161
:100BB000FB0193838283FE0111C040815181028138
:100BC000138148175907E0F04817590799F410970F
:100BD00061F012960C93129713961C933296CF01E4
:100BE000DF91CF911F910F910895009321031093EE
:100BF0002203F4CF2115310551F04217530738F085
:100C0000A901DB019A01BD01DF01F801C1CFEF01AC
:100C1000F9CF9093220380932103CDCFFE01E20F01
:100C2000F31F819391932250310939832883D7CFC1
:100C300020911F0330912003232B41F420910202C5
:100C4000309103023093200320931F032091000270
:100C5000309101022115310541F42DB73EB7409185
:100C6000040250910502241B350BE0911F03F09103
:100C70002003E217F307A0F42E1B3F0B28173907B8
:100C800078F0AC014E5F5F4F2417350748F04E0FE8
:100C90005F1F5093200340931F03819391939FCF35
:100CA000F0E0E0E09CCFCF93DF930097E9F0FC0108
:100CB000329713821282A0912103B0912203ED0199
:100CC00030E020E01097A1F420813181820F931F42
:100CD00020911F03309120032817390709F061C0C4
:100CE000F0932003E0931F03DF91CF910895EA0171
:100CF000CE17DF07E8F54A815B819E01411551055A
:100D0000B1F7E901FB83EA8349915991C40FD51FDB
:100D1000EC17FD0761F4808191810296840F951F85
:100D2000E90199838883828193819B838A83F0E0A0
:100D3000E0E012968D919C9113970097B9F52D9153
:100D40003C911197CD010296820F931F20911F03B2
:100D5000309120032817390739F6309751F5109252
:100D6000220310922103B0932003A0931F03BCCF52
:100D7000D383C28340815181840F951FC817D9073F
:100D800061F44E5F5F4F88819981480F591F5183ED
:100D900040838A819B81938382832115310509F0E9
:100DA000B0CFF0932203E09321039ECFFD01DC013D
:0C0DB000C0CF13821282D7CFF894FFCF7F
:100DBC000000230320000A0A54687265616420490C
:100DCC00443A20000A546872656164204E616D6576
:100DDC003A20000A54687265616420504320000A6E
:100DEC00537461636B2055736167653A20000A5434
:100DFC006F74616C20537461636B2053697A653A2C
:100E0C0020000A43757272656E7420546F70206FE7
:100E1C006620537461636B3A20000A537461636BF0
:100E2C0020426173653A20000A537461636B20455C
:100E3C006E643A20004F532054696D653A20000AC5
:100E4C004E756D626572206F6620546872656164C0
:100E5C00733A2000537461747573004C4544006DF3
:100E6C0061696E003078005B003B0048005B324AE1
:020E7C00000074
:00000001FF
